:0C00FB000A0C3F065B4F666D7D077F6FAF
:1000E6005389F0438901758AA0758C15C28DD28C0F
:0500F600D2AFD2A922E7
:080003001200E675A03F80FE2B
:03000B0002009A56
:09009A00C0E0C0D075D000C00028
:1000A300758AA0758C15050BE50B7002050AC394C0
:1000B3000AE50A94004025750A00750B000509E559
:1000C3000970020508240CF8E6F5A0C3E5099409B4
:0C00D300E508940040067508007509005F
:0700DF00D000D0D0D0E032C8
:0300000002000EED
:0C000E00787FE4F6D8FD758115020055DE
:10001A00020003E493A3F8E493A34003F68001F2F9
:10002A0008DFF48029E493A3F85407240CC8C333E7
:10003A00C4540F4420C8834004F456800146F6DFB6
:10004A00E4800B01020408102040809000FBE47E4B
:10005A00019360BCA3FF543F30E509541FFEE493AB
:10006A00A360010ECF54C025E060A840B8E493A372
:10007A00FAE493A3F8E493A3C8C582C8CAC583CA9D
:10008A00F0A3C8C582C8CAC583CADFE9DEE780BE55
:0101070000F7
:00000001FF
