:080115001200DE12008F80FBD6
:0E00F2000C0848656C6C6F20576F726C6400D0
:0A00BC00C2B1C2B28FA07F057E0022
:0400C600EF4E601386
:1000CA007515027516EFD516FDD515FAEF1F70ECEA
:0100DA001E07
:0300DB0080E92297
:0A010100C2B01200BCD2B2C2B2229A
:0A010B00D2B01200BCD2B2C2B22280
:1000DE007F381201017F0C1201017F061201017F90
:0400EE000102010109
:10008F007F801201017F4112010B7FC21201017F9C
:10009F002B12010B7F82120101E4F5147408251451
:0D00AF00F8E6FF600712010B051480F02237
:03000000020003F8
:0C000300787FE4F6D8FD75811602004AF3
:10000F00020115E493A3F8E493A34003F68001F2F1
:10001F0008DFF48029E493A3F85407240CC8C333F2
:10002F00C4540F4420C8834004F456800146F6DFC1
:10003F00E4800B01020408102040809000F2E47E5F
:10004F00019360BCA3FF543F30E509541FFEE493B6
:10005F00A360010ECF54C025E060A840B8E493A37D
:10006F00FAE493A3F8E493A3C8C582C8CAC583CAA8
:10007F00F0A3C8C582C8CAC583CADFE9DEE780BE60
:0101000000FE
:00000001FF
