:0B0225001201F112020512010B80FB18
:0C02180002080000020C0034020A00166C
:0A01BA00C2B1C2B28FA07F057E0023
:0401C400EF4E601387
:1001C8007510027511EFD511FDD510FAEF1F70ECFF
:0101D8001E08
:0301D90080E92298
:0A023000C2B01201BAD2B2C2B2226B
:0B01DC007C007D0A120165EF2430FF5B
:0A01E700D2B01201BAD2B2C2B222A5
:1001F1007F381202307F0C1202307F061202307FEC
:0402010001020230C4
:100205005389F0438901758A18758CFCD28CD2AF5D
:03021500D2A92249
:10010B007F80120230AE0AAF0B1201DCAE0AAF0BCE
:10011B007C007D0A120165ED2430FF1201E77F3A66
:10012B001201E7AE0CAF0D1201DCAE0CAF0D7C0073
:10013B007D0A120165ED2430FF1201E77F3A1201AF
:10014B00E7AE08AF091201DCAE08AF097C007D0AEF
:0A015B00120165ED2430FF0201E7F8
:03000B0002009A56
:10009A00C0E0C0D0758A18758CFC050FE50F700298
:1000AA00050EC394E8E50E9403400E750E00750F15
:1000BA00000509E50970020508C3E509943CE5084D
:1000CA009400400E750800750900050DE50D7002D3
:1000DA00050CC3E50D943CE50C9400400E750C002C
:1000EA00750D00050BE50B7002050AC3E50B9418A4
:1000FA00E50A94004006750A00750B00D0D0D0E0DE
:01010A0032C2
:0300000002000EED
:0C000E00787FE4F6D8FD758111020055E2
:10016500BC000BBE0029EF8DF084FFADF022E4CC7E
:10017500F875F008EF2FFFEE33FEEC33FCEE9DEC47
:10018500984005FCEE9DFE0FD5F0E9E4CEFD22ED8D
:10019500F8F5F0EE8420D21CFEADF075F008EF2FD7
:1001A500FFED33FD4007985006D5F0F222C398FDC8
:0501B5000FD5F0EA2265
:10001A00020225E493A3F8E493A34003F68001F2D5
:10002A0008DFF48029E493A3F85407240CC8C333E7
:10003A00C4540F4420C8834004F456800146F6DFB6
:10004A00E4800B0102040810204080900218E47E2C
:10005A00019360BCA3FF543F30E509541FFEE493AB
:10006A00A360010ECF54C025E060A840B8E493A372
:10007A00FAE493A3F8E493A3C8C582C8CAC583CA9D
:10008A00F0A3C8C582C8CAC583CADFE9DEE780BE55
:0102240000D9
:00000001FF
