:080003000206040C08090103C8
:10000E0075A003758901758C3C758AB0D2AFD2A9E3
:10001E00D28C309008309105E4F508F50920902334
:10002E00E50964024508701BEFC394085005EF0400
:10003E00FE80027E00AF06EF90000393F5A0E4F57C
:10004E0008F5092091CCE5096402450870C4EFD388
:10005E0094004005EF14FE80027E07AF06EF90007D
:0B006E000393F5A0E4F508F50980A756
:03000B0002007977
:10007900C0E0758C3C758AB00509E5097002050870
:03008900D0E03292
:0300000002008C6F
:0C008C00787FE4F6D8FD75810902000EB3
:00000001FF
