:10000300808386898D909396999C9FA2A5A8ABAE79
:10001300B1B4B7BABCBFC2C5C7CACCCFD1D4D6D886
:10002300DADDDFE1E3E5E7E9EAECEEEFF1F2F4F53F
:10003300F6F7F8F9FAFBFCFDFDFEFFFFFFFFFFFFFC
:10004300FFFFFFFFFFFFFEFDFDFCFBFAF9F8F7F6EC
:10005300F5F4F2F1EFEEECEAE9E7E5E3E1DEDDDA10
:10006300D8D6D4D1CFCCCAC7C5C2BFBCBAB7B4B136
:10007300AEABA8A5A29F9C999693908D8986838009
:10008300807C7976726F6C696663605D5A575551EF
:100093004E4C484543403D3A383533302E2B2927C3
:1000A3002522201E1C1A1816151311100E0D0B0AEB
:1000B300090807060504030202010000000000000E
:1000C30000000000000001020203040506070809FE
:1000D3000A0B0D0E1011131516181A1C1E202225BB
:1000E30027292B2E303335383A3D404345484C4E73
:1000F3005155575A5D606366696C6F7276797C807F
:04024A00020D00643D
:10023200E4F5A07F64FE12021A75A0FFAF0EAE0DA8
:0302420002021A9B
:1001FB00E4FFFE8FA00FBF00010EEFF44E70F47EF4
:0E020B00007FFF8FA0EF1F70011EEF4E70F5F9
:0102190022C2
:1001D100E4F508F509F508F509E50990000393F53B
:1001E100A07F017E0012021A0509E50970020508C7
:0901F100C394FFE508940040E00E
:0101FA0022E2
:10018F00209007E50C7003750C01E50CB4011130DC
:10019F00900E740A250EF50EE4350DF50D750C0154
:1001AF00209107E50C7003750C01E50CB4011230BA
:1001BF00910F74F6250EF50E74FF350DF50D750CB8
:0201CF0001220B
:050245001201D180FB55
:04021A00EF4E601330
:10021E00750A02750BEFD50BFDD50AFAEF1F70ECC0
:01022E001EB1
:03022F0080E92241
:03000000020103F7
:0C010300787FE4F6D8FD75810E02014AF9
:10010F00020245E493A3F8E493A34003F68001F2BF
:10011F0008DFF48029E493A3F85407240CC8C333F1
:10012F00C4540F4420C8834004F456800146F6DFC0
:10013F00E4800B010204081020408090024AE47E04
:10014F00019360BCA3FF543F30E509541FFEE493B5
:10015F00A360010ECF54C025E060A840B8E493A37C
:10016F00FAE493A3F8E493A3C8C582C8CAC583CAA7
:10017F00F0A3C8C582C8CAC583CADFE9DEE780BE5F
:01024E0000AF
:00000001FF
