:10014A007B647A007D017C007F007E101200037FB1
:08015A00507EC312016280E82F
:040182007F02DFFE1B
:010186002256
:10016200AD07AC06ED1DAE0470011C4E6005120118
:040172008280F12274
:080003008E088F098A0A8B0B9D
:10000B00E4F50CF50DED4C60030200ADE5091509A7
:10001B00AE08700215084E7003020141E50C7062C8
:10002B00E50DB40800505B900039F82828730200E6
:10003B005102005702005D02006702006D0200775B
:10004B00020081020085D2A2C2A3800AD2A2D2A34F
:10005B008004C2A2D2A3C2A4C2A58026C2A2D2A3EC
:10006B008004C2A2C2A3D2A4C2A58016C2A2C2A3FC
:10007B00D2A4D2A5800CC2A28002D2A2C2A3C2A4D7
:10008B00D2A5E50D6407450C7006F50CF50D80083F
:10009B00050DE50D7002050CAF0BAE0A12016202E5
:1000AB000017E5091509AE08700215084E7003021A
:1000BB000141E50C7060E50DB4080050599000CF7C
:1000CB00F82828730200E70200EB0200F50200FF9C
:1000DB0002010502010F020113020119D2A28002D3
:1000EB00C2A2C2A3C2A4D2A5802CC2A2C2A3D2A474
:1000FB00D2A58022C2A2C2A38004C2A2D2A3D2A440
:10010B00C2A58012C2A28002D2A2D2A38004D2A224
:10011B00C2A3C2A4C2A5E50D6407450C7006F50C7D
:10012B00F50D8008050DE50D7002050CAF0BAE0A41
:0E013B001201620200ADC2A2C2A3C2A4C2A5FC
:010149002293
:0300000002017684
:0C017600787FE4F6D8FD75810D02014A87
:00000001FF
