:0C00DA0012005F7F647E001200AC80F416
:1000AC00EF1FAA0670011E4A6013E4FCFDC3ED9419
:0D00BC0050EC940050EA0DBD00010C80F0E6
:0100C9002214
:1000CA0001030206040C080909080C0406020301CC
:10008D00E4F50E53A0F0E50E9000D29342A07F024E
:0E009D007E001200AC050EE50EC3940840E58F
:0100AB002232
:10000300E4F509E4F50853A0F0E5089000D2934223
:10001300A07F037E001200AC0508E508C3940840E6
:0D002300E50509E509C3944F40D953A0F04D
:0100300022AD
:10003100E4F50BE4F50A53A0F0E50A9000CA9342F7
:10004100A07F037E001200AC050AE50AC3940840B4
:0D005100E5050BE50BC3944F40D953A0F01B
:01005E00227F
:10005F00E4F50DE4F50C53A0F0E50C9000D29342BB
:10006F00A07F037E001200AC050CE50CC394084082
:0D007F00E5050DE50DC394FF40D953A0F039
:01008C002251
:030000000200E615
:0C00E600787FE4F6D8FD75810E0200DA88
:00000001FF
