:1000C30009080C040602030101030206040C0809D3
:0300D30001080021
:1000AB00EF1FAA0670011E4A600DE4FDC3ED6480CC
:0700BB0094F150EC0D80F5FB
:0100C200221B
:10008F002090FDE4FCECC3940850F5EC9000CB936A
:0C009F00F5A0AF087E001200AB0C80E959
:03000000020003F8
:0C000300787FE4F6D8FD75810802004A01
:10000F0002008FE493A3F8E493A34003F68001F278
:10001F0008DFF48029E493A3F85407240CC8C333F2
:10002F00C4540F4420C8834004F456800146F6DFC1
:10003F00E4800B01020408102040809000D3E47E7E
:10004F00019360BCA3FF543F30E509541FFEE493B6
:10005F00A360010ECF54C025E060A840B8E493A37D
:10006F00FAE493A3F8E493A3C8C582C8CAC583CAA8
:10007F00F0A3C8C582C8CAC583CADFE9DEE780BE60
:0100D6000029
:00000001FF
