:0501890012015280FE8E
:03002300020026B2
:10002600C0E0C0F0C083C082C0D075D000C000C0A0
:1000360001C002C003C004C005C006C00730981541
:1000460085990EE50EB40103120076E50EB402039F
:100056001200A7C298D007D006D005D004D003D08E
:1000660002D001D000D0D0D082D083D0F0D0E03200
:10013400EF1FAA0670011E4A6013E4FCFDC3ED9490
:0D01440050EC940050EA0DBD00010C80F05D
:01015100228B
:10016D0001030206040C080909080C040602030128
:10000300E4F50F53A0F0E50F9001759342A07F0232
:0E0013007E00120134050FE50FC3940840E58E
:0100210022BC
:1000D800E4F509E4F50853A0F0E5089001759342AA
:1000E800A07F037E001201340508E508C394084088
:0D00F800E50509E509C3944F40D953A0F078
:0101050022D7
:10010600E4F50BE4F50A53A0F0E50A90016D93427D
:10011600A07F037E00120134050AE50AC394084055
:0D012600E5050BE50BC3944F40D953A0F045
:0101330022A9
:10007600E4F50DE4F50C53A0F0E50C900175934200
:10008600A07F017E00120134050CE50CC3940840E4
:10009600E5050DE50DC394FF40D97FE87E03020117
:0100A6003425
:1000A700E4F50DE4F50C53A0F0E50C90016D9342D7
:1000B700A07F017E00120134050CE50CC3940840B3
:1000C700E5050DE50DC394FF40D97FE87E030201E6
:0100D70034F4
:1001520043878075985053890F438920758BFA75B0
:0B0162008DFAC2ABD28ED2AFD2AC221D
:0300000002017D7D
:0C017D00787FE4F6D8FD75810F0201893F
:00000001FF
