:0C00DC000A0A3F065B4F666D7D077F6FD0
:1000BA005389F0438906758AFD758CFDC28DD28CF1
:0500CA00D2AFD2A92213
:10009A001200BA75A03F740A2509F8E6F5A0C3E56F
:1000AA0009940AE508940040EDE4F508F50980E6AC
:03000B000200CF21
:0D00CF00C0E00509E50970020508D0E03227
:0300000002000EED
:0C000E00787FE4F6D8FD758113020055E0
:10001A0002009AE493A3F8E493A34003F68001F262
:10002A0008DFF48029E493A3F85407240CC8C333E7
:10003A00C4540F4420C8834004F456800146F6DFB6
:10004A00E4800B01020408102040809000DCE47E6A
:10005A00019360BCA3FF543F30E509541FFEE493AB
:10006A00A360010ECF54C025E060A840B8E493A372
:10007A00FAE493A3F8E493A3C8C582C8CAC583CA9D
:10008A00F0A3C8C582C8CAC583CADFE9DEE780BE55
:0100E8000017
:00000001FF
