:0A00CE000808010204081020408019
:10008F00E4F51074082511F8E6F5A00511E511B493
:10009F000803E4F5117F647E001200B60510E51029
:0700AF00C3940840DE80D974
:0400B600EF4E601396
:1000BA007512027513EFD513FDD512FAEF1F70EC06
:0100CA001E17
:0300CB0080E922A7
:03000000020003F8
:0C000300787FE4F6D8FD75811302004AF6
:10000F0002008FE493A3F8E493A34003F68001F278
:10001F0008DFF48029E493A3F85407240CC8C333F2
:10002F00C4540F4420C8834004F456800146F6DFC1
:10003F00E4800B01020408102040809000CEE47E83
:10004F00019360BCA3FF543F30E509541FFEE493B6
:10005F00A360010ECF54C025E060A840B8E493A37D
:10006F00FAE493A3F8E493A3C8C582C8CAC583CAA8
:10007F00F0A3C8C582C8CAC583CADFE9DEE780BE60
:0100D8000027
:00000001FF
