:0C027E000A09C0F9A4B0999282F880909F
:0D027100E4F5B01200038F0812021680F6AB
:10021600E50875F00A84FF700ED2B174092508F856
:10022600E6F5A075A0FF22D2B074092FF8E6F5A076
:100236007F057E00120259C2B0D2B1E50875F00AF8
:1002460084740925F0F8E6F5A07F057E00120259B0
:03025600C2B12210
:100003007590FFC2942090147F0A7E00120259302B
:1000130090FD7F0A7E001202597513012091147F0F
:100023000A7E001202593091FD7F0A7E00120259A6
:100033007513052092147F0A7E001202593092FD37
:100043007F0A7E001202597513092093147F0A7EDA
:10005300001202593093FD7F0A7E00120259751374
:100063000D7590FFC2952090147F0A7E00120259ED
:100073003090FD7F0A7E00120259751302209114FD
:100083007F0A7E001202593091FD7F0A7E00120220
:10009300597513062092147F0A7E0012025930927A
:1000A300FD7F0A7E0012025975130A2093147F0AFA
:1000B3007E001202593093FD7F0A7E0012025975A9
:1000C300130E7590FFC2962090147F0A7E001202D1
:1000D300593090FD7F0A7E00120259751303209157
:1000E300147F0A7E001202593091FD7F0A7E0012AE
:1000F30002597513072092147F0A7E0012025930A9
:1001030092FD7F0A7E0012025975130B2093147F10
:100113000A7E001202593093FD7F0A7E00120259B3
:1001230075130F7590FFC2972090147F0A7E0012FB
:1001330002593090FD7F0A7E001202597513042084
:1001430091147F0A7E001202593091FD7F0A7E00CE
:100153001202597513082092147F0A7E0012025965
:100163003092FD7F0A7E0012025975130C209314FE
:100173007F0A7E001202593093FD7F0A7E0012022D
:0601830059751310AF13C3
:010189002253
:04025900EF4E6013F1
:10025D007514027515EFD515FDD514FAEF1F70EC59
:01026D001E72
:03026E0080E92202
:0300000002018A70
:0C018A00787FE4F6D8FD7581150201D1E4
:10019600020271E493A3F8E493A34003F68001F20C
:1001A60008DFF48029E493A3F85407240CC8C3336A
:1001B600C4540F4420C8834004F456800146F6DF39
:1001C600E4800B010204081020408090027EE47E49
:1001D600019360BCA3FF543F30E509541FFEE4932E
:1001E600A360010ECF54C025E060A840B8E493A3F5
:1001F600FAE493A3F8E493A3C8C582C8CAC583CA20
:10020600F0A3C8C582C8CAC583CADFE9DEE780BED7
:01028A000073
:00000001FF
