:0A0088001200657F0A12009980F94A
:07000300D2A0C2A1D2A2228B
:07009200C2A0D2A1D2A222FC
:10004E00C2A0D2A17F197E00120036C2A17F4B7EC4
:07005E0000120036D2A222BD
:100065005389F0438901758A18758CFCC28DD28C31
:07007500D2AFD2A9C2A02204
:030099008F0822AB
:03000B0002000EE2
:10000E00C0E0C0D0758A18758CFC0509E509C3944B
:10001E00644003750900E509C395085004C2A08029
:08002E0002D2A0D0D0D0E032D4
:04003600EF4E601316
:10003A00750A02750BEFD50BFDD50AFAEF1F70ECA6
:01004A001E97
:03004B0080E92227
:0300000002007C7F
:0C007C00787FE4F6D8FD75810B02008847
:00000001FF
