:1001050020900512003880F83090F512000380F039
:1000E700EF1FAA0670011E4A6013E4FCFDC3ED94DE
:0D00F70050EC940050EA0DBD00010C80F0AB
:0101040022D8
:1001150001030206040C080909080C040602030180
:1000C500E4F50E53A0F0E50E90011D9342A07F02CA
:1000D5007E001200E7050EE50EC3940840E553A027
:0100E500F02A
:0100E60022F7
:10006900E4F509E4F50853A0F0E50890011D934271
:10007900A07F037E001200E70508E508C394084045
:0D008900E50509E509C3944F40D953A0F0E7
:010096002247
:10009700E4F50BE4F50A53A0F0E50A900115934245
:1000A700A07F037E001200E7050AE50AC394084013
:0D00B700E5050BE50BC3944F40D953A0F0B5
:0100C4002219
:10003800E4F50DE4F50C53A0F0E50C90011D934296
:10004800A07F017E001200E7050CE50CC394084070
:10005800E5050DE50DC394FF40D97FE87E03020056
:01006800E7B0
:10000300E4F50DE4F50C53A0F0E50C9001159342D3
:10001300A07F017E001200E7050CE50CC3940840A5
:10002300E5050DE50DC394FF40D97FE87E0312007B
:04003300E72090FD35
:0100370022A6
:03000000020125D5
:0C012500787FE4F6D8FD75810E0201051C
:00000001FF
