:0600D50001090001080012
:080003001200C275080280FB27
:03000B0002009A56
:10009A00C0E0C0D0758A0C758CFEE509D39508506E
:1000AA0004D2A08002C2A00509E509C3942840032E
:0800BA00750900D0D0D0E0323E
:1000C2005389F0438901758A0C758CFED2A9D28CB2
:0300D200D2AF2288
:0300000002000EED
:0C000E00787FE4F6D8FD758109020055EA
:10001A00020003E493A3F8E493A34003F68001F2F9
:10002A0008DFF48029E493A3F85407240CC8C333E7
:10003A00C4540F4420C8834004F456800146F6DFB6
:10004A00E4800B01020408102040809000D5E47E71
:10005A00019360BCA3FF543F30E509541FFEE493AB
:10006A00A360010ECF54C025E060A840B8E493A372
:10007A00FAE493A3F8E493A3C8C582C8CAC583CA9D
:10008A00F0A3C8C582C8CAC583CADFE9DEE780BE55
:0100DB000024
:00000001FF
