:0C00D7000A083F065B4F666D7D077F6FD7
:10008F0075120175A03F2080FD7F147E001200BF06
:10009F003080FD7F147E001200BF74082512F8E631
:1000AF00F5A00512E512C3940A40DBE4F51280D6E1
:0400BF00EF4E60138D
:1000C3007513027514EFD514FDD513FAEF1F70ECF9
:0100D3001E0E
:0300D40080E9229E
:03000000020003F8
:0C000300787FE4F6D8FD75811402004AF5
:10000F0002008FE493A3F8E493A34003F68001F278
:10001F0008DFF48029E493A3F85407240CC8C333F2
:10002F00C4540F4420C8834004F456800146F6DFC1
:10003F00E4800B01020408102040809000D7E47E7A
:10004F00019360BCA3FF543F30E509541FFEE493B6
:10005F00A360010ECF54C025E060A840B8E493A37D
:10006F00FAE493A3F8E493A3C8C582C8CAC583CAA8
:10007F00F0A3C8C582C8CAC583CADFE9DEE780BE60
:0100E300001C
:00000001FF
