:1000CE000A103F065B4F666D7D077F6F08080001C3
:0600DE0002030405060701
:10008F00E4F51A7408251AF8E6F5B07410251AF875
:10009F00E6F5A07F027E001200B6051AC3E51A64CA
:0700AF0080948840DE80D937
:0400B600EF4E601396
:1000BA00751B02751CEFD51CFDD51BFAEF1F70ECE2
:0100CA001E17
:0300CB0080E922A7
:03000000020003F8
:0C000300787FE4F6D8FD75811C02004AED
:10000F0002008FE493A3F8E493A34003F68001F278
:10001F0008DFF48029E493A3F85407240CC8C333F2
:10002F00C4540F4420C8834004F456800146F6DFC1
:10003F00E4800B01020408102040809000CEE47E83
:10004F00019360BCA3FF543F30E509541FFEE493B6
:10005F00A360010ECF54C025E060A840B8E493A37D
:10006F00FAE493A3F8E493A3C8C582C8CAC583CAA8
:10007F00F0A3C8C582C8CAC583CADFE9DEE780BE60
:0100E400001B
:00000001FF
