:0801D20012019C12008F80FB5A
:0D01B0000B08303132333435363738390022
:0A016000C2B4C2B58F907F057E0087
:04016A00EF4E6013E1
:10016E007516027517EFD517FDD516FAEF1F70EC41
:01017E001E62
:03017F0080E922F2
:0A01BE00C2B3120160D2B5C2B5222F
:0A01C800D2B3120160D2B5C2B52215
:10019C007F381201BE7F0C1201BE7F061201BE7F9A
:0401AC00010201BE8D
:10008F001201827C007D647E001200F97D33120123
:10009F000BAA06AB077C007D6412010B8F147C004A
:1000AF007D64AF03AE0212010B7E007F0ACFCDCF6E
:1000BF00CECCCE12010B8F15AE02AF037C007D0AA2
:1000CF0012010B7F801201BE74082514F8E6FF128F
:1000DF0001C87F2E1201C874082515F8E6FF12011A
:0A00EF00C874082DF8E6FF0201C8EE
:10018200C2B0D2B07F057E0012016AC2B030B1FDAA
:0A019200D2B285A018C2B2AF182245
:03000000020003F8
:0C000300787FE4F6D8FD75811802004AF1
:1000F900EF8DF0A4A8F0CF8CF0A428CE8DF0A42E1B
:02010900FE22D4
:10010B00BC000BBE0029EF8DF084FFADF022E4CCD8
:10011B00F875F008EF2FFFEE33FEEC33FCEE9DECA1
:10012B00984005FCEE9DFE0FD5F0E9E4CEFD22EDE7
:10013B00F8F5F0EE8420D21CFEADF075F008EF2F31
:10014B00FFED33FD4007985006D5F0F222C398FD22
:05015B000FD5F0EA22BF
:10000F000201D2E493A3F8E493A34003F68001F234
:10001F0008DFF48029E493A3F85407240CC8C333F2
:10002F00C4540F4420C8834004F456800146F6DFC1
:10003F00E4800B01020408102040809001B0E47EA0
:10004F00019360BCA3FF543F30E509541FFEE493B6
:10005F00A360010ECF54C025E060A840B8E493A37D
:10006F00FAE493A3F8E493A3C8C582C8CAC583CAA8
:10007F00F0A3C8C582C8CAC583CADFE9DEE780BE60
:0101BD000041
:00000001FF
